{
  "_format": "hh-sol-artifact-1",
  "contractName": "NFTMarketplace",
  "sourceName": "contracts/NFTMarketplace.sol",
  "abi": [
    {
      "inputs": [],
      "stateMutability": "nonpayable",
      "type": "constructor"
    },
    {
      "anonymous": false,
      "inputs": [
        {
          "indexed": true,
          "internalType": "address",
          "name": "owner",
          "type": "address"
        },
        {
          "indexed": true,
          "internalType": "address",
          "name": "approved",
          "type": "address"
        },
        {
          "indexed": true,
          "internalType": "uint256",
          "name": "tokenId",
          "type": "uint256"
        }
      ],
      "name": "Approval",
      "type": "event"
    },
    {
      "anonymous": false,
      "inputs": [
        {
          "indexed": true,
          "internalType": "address",
          "name": "owner",
          "type": "address"
        },
        {
          "indexed": true,
          "internalType": "address",
          "name": "operator",
          "type": "address"
        },
        {
          "indexed": false,
          "internalType": "bool",
          "name": "approved",
          "type": "bool"
        }
      ],
      "name": "ApprovalForAll",
      "type": "event"
    },
    {
      "anonymous": false,
      "inputs": [
        {
          "indexed": true,
          "internalType": "address",
          "name": "from",
          "type": "address"
        },
        {
          "indexed": true,
          "internalType": "address",
          "name": "to",
          "type": "address"
        },
        {
          "indexed": true,
          "internalType": "uint256",
          "name": "tokenId",
          "type": "uint256"
        }
      ],
      "name": "Transfer",
      "type": "event"
    },
    {
      "inputs": [
        {
          "internalType": "address",
          "name": "to",
          "type": "address"
        },
        {
          "internalType": "uint256",
          "name": "tokenId",
          "type": "uint256"
        }
      ],
      "name": "approve",
      "outputs": [],
      "stateMutability": "nonpayable",
      "type": "function"
    },
    {
      "inputs": [
        {
          "internalType": "address",
          "name": "owner",
          "type": "address"
        }
      ],
      "name": "balanceOf",
      "outputs": [
        {
          "internalType": "uint256",
          "name": "",
          "type": "uint256"
        }
      ],
      "stateMutability": "view",
      "type": "function"
    },
    {
      "inputs": [
        {
          "internalType": "string",
          "name": "tokenURI",
          "type": "string"
        },
        {
          "internalType": "uint256",
          "name": "price",
          "type": "uint256"
        }
      ],
      "name": "createToken",
      "outputs": [
        {
          "internalType": "uint256",
          "name": "",
          "type": "uint256"
        }
      ],
      "stateMutability": "payable",
      "type": "function"
    },
    {
      "inputs": [
        {
          "internalType": "uint256",
          "name": "tokenId",
          "type": "uint256"
        }
      ],
      "name": "executeSale",
      "outputs": [],
      "stateMutability": "payable",
      "type": "function"
    },
    {
      "inputs": [],
      "name": "getAllNFTs",
      "outputs": [
        {
          "components": [
            {
              "internalType": "uint256",
              "name": "tokenId",
              "type": "uint256"
            },
            {
              "internalType": "address payable",
              "name": "owner",
              "type": "address"
            },
            {
              "internalType": "address payable",
              "name": "seller",
              "type": "address"
            },
            {
              "internalType": "uint256",
              "name": "price",
              "type": "uint256"
            },
            {
              "internalType": "bool",
              "name": "currentlyListed",
              "type": "bool"
            }
          ],
          "internalType": "struct NFTMarketplace.ListedToken[]",
          "name": "",
          "type": "tuple[]"
        }
      ],
      "stateMutability": "view",
      "type": "function"
    },
    {
      "inputs": [
        {
          "internalType": "uint256",
          "name": "tokenId",
          "type": "uint256"
        }
      ],
      "name": "getApproved",
      "outputs": [
        {
          "internalType": "address",
          "name": "",
          "type": "address"
        }
      ],
      "stateMutability": "view",
      "type": "function"
    },
    {
      "inputs": [],
      "name": "getCurrentToken",
      "outputs": [
        {
          "internalType": "uint256",
          "name": "",
          "type": "uint256"
        }
      ],
      "stateMutability": "view",
      "type": "function"
    },
    {
      "inputs": [],
      "name": "getLastestIdToListedToken",
      "outputs": [
        {
          "components": [
            {
              "internalType": "uint256",
              "name": "tokenId",
              "type": "uint256"
            },
            {
              "internalType": "address payable",
              "name": "owner",
              "type": "address"
            },
            {
              "internalType": "address payable",
              "name": "seller",
              "type": "address"
            },
            {
              "internalType": "uint256",
              "name": "price",
              "type": "uint256"
            },
            {
              "internalType": "bool",
              "name": "currentlyListed",
              "type": "bool"
            }
          ],
          "internalType": "struct NFTMarketplace.ListedToken",
          "name": "",
          "type": "tuple"
        }
      ],
      "stateMutability": "view",
      "type": "function"
    },
    {
      "inputs": [],
      "name": "getListPrice",
      "outputs": [
        {
          "internalType": "uint256",
          "name": "",
          "type": "uint256"
        }
      ],
      "stateMutability": "view",
      "type": "function"
    },
    {
      "inputs": [
        {
          "internalType": "uint256",
          "name": "tokenId",
          "type": "uint256"
        }
      ],
      "name": "getListedForTokenId",
      "outputs": [
        {
          "components": [
            {
              "internalType": "uint256",
              "name": "tokenId",
              "type": "uint256"
            },
            {
              "internalType": "address payable",
              "name": "owner",
              "type": "address"
            },
            {
              "internalType": "address payable",
              "name": "seller",
              "type": "address"
            },
            {
              "internalType": "uint256",
              "name": "price",
              "type": "uint256"
            },
            {
              "internalType": "bool",
              "name": "currentlyListed",
              "type": "bool"
            }
          ],
          "internalType": "struct NFTMarketplace.ListedToken",
          "name": "",
          "type": "tuple"
        }
      ],
      "stateMutability": "view",
      "type": "function"
    },
    {
      "inputs": [],
      "name": "getMyNFTs",
      "outputs": [
        {
          "components": [
            {
              "internalType": "uint256",
              "name": "tokenId",
              "type": "uint256"
            },
            {
              "internalType": "address payable",
              "name": "owner",
              "type": "address"
            },
            {
              "internalType": "address payable",
              "name": "seller",
              "type": "address"
            },
            {
              "internalType": "uint256",
              "name": "price",
              "type": "uint256"
            },
            {
              "internalType": "bool",
              "name": "currentlyListed",
              "type": "bool"
            }
          ],
          "internalType": "struct NFTMarketplace.ListedToken[]",
          "name": "",
          "type": "tuple[]"
        }
      ],
      "stateMutability": "view",
      "type": "function"
    },
    {
      "inputs": [
        {
          "internalType": "address",
          "name": "owner",
          "type": "address"
        },
        {
          "internalType": "address",
          "name": "operator",
          "type": "address"
        }
      ],
      "name": "isApprovedForAll",
      "outputs": [
        {
          "internalType": "bool",
          "name": "",
          "type": "bool"
        }
      ],
      "stateMutability": "view",
      "type": "function"
    },
    {
      "inputs": [],
      "name": "name",
      "outputs": [
        {
          "internalType": "string",
          "name": "",
          "type": "string"
        }
      ],
      "stateMutability": "view",
      "type": "function"
    },
    {
      "inputs": [],
      "name": "owner",
      "outputs": [
        {
          "internalType": "address payable",
          "name": "",
          "type": "address"
        }
      ],
      "stateMutability": "view",
      "type": "function"
    },
    {
      "inputs": [
        {
          "internalType": "uint256",
          "name": "tokenId",
          "type": "uint256"
        }
      ],
      "name": "ownerOf",
      "outputs": [
        {
          "internalType": "address",
          "name": "",
          "type": "address"
        }
      ],
      "stateMutability": "view",
      "type": "function"
    },
    {
      "inputs": [
        {
          "internalType": "address",
          "name": "from",
          "type": "address"
        },
        {
          "internalType": "address",
          "name": "to",
          "type": "address"
        },
        {
          "internalType": "uint256",
          "name": "tokenId",
          "type": "uint256"
        }
      ],
      "name": "safeTransferFrom",
      "outputs": [],
      "stateMutability": "nonpayable",
      "type": "function"
    },
    {
      "inputs": [
        {
          "internalType": "address",
          "name": "from",
          "type": "address"
        },
        {
          "internalType": "address",
          "name": "to",
          "type": "address"
        },
        {
          "internalType": "uint256",
          "name": "tokenId",
          "type": "uint256"
        },
        {
          "internalType": "bytes",
          "name": "data",
          "type": "bytes"
        }
      ],
      "name": "safeTransferFrom",
      "outputs": [],
      "stateMutability": "nonpayable",
      "type": "function"
    },
    {
      "inputs": [
        {
          "internalType": "address",
          "name": "operator",
          "type": "address"
        },
        {
          "internalType": "bool",
          "name": "approved",
          "type": "bool"
        }
      ],
      "name": "setApprovalForAll",
      "outputs": [],
      "stateMutability": "nonpayable",
      "type": "function"
    },
    {
      "inputs": [
        {
          "internalType": "bytes4",
          "name": "interfaceId",
          "type": "bytes4"
        }
      ],
      "name": "supportsInterface",
      "outputs": [
        {
          "internalType": "bool",
          "name": "",
          "type": "bool"
        }
      ],
      "stateMutability": "view",
      "type": "function"
    },
    {
      "inputs": [],
      "name": "symbol",
      "outputs": [
        {
          "internalType": "string",
          "name": "",
          "type": "string"
        }
      ],
      "stateMutability": "view",
      "type": "function"
    },
    {
      "inputs": [
        {
          "internalType": "uint256",
          "name": "tokenId",
          "type": "uint256"
        }
      ],
      "name": "tokenURI",
      "outputs": [
        {
          "internalType": "string",
          "name": "",
          "type": "string"
        }
      ],
      "stateMutability": "view",
      "type": "function"
    },
    {
      "inputs": [
        {
          "internalType": "address",
          "name": "from",
          "type": "address"
        },
        {
          "internalType": "address",
          "name": "to",
          "type": "address"
        },
        {
          "internalType": "uint256",
          "name": "tokenId",
          "type": "uint256"
        }
      ],
      "name": "transferFrom",
      "outputs": [],
      "stateMutability": "nonpayable",
      "type": "function"
    },
    {
      "inputs": [
        {
          "internalType": "uint256",
          "name": "_listPrice",
          "type": "uint256"
        }
      ],
      "name": "updateListPrice",
      "outputs": [],
      "stateMutability": "payable",
      "type": "function"
    }
  ],
  "bytecode": "0x6080604052662386f26fc10000600a553480156200001c57600080fd5b50604080518082018252600e81526d4e46544d61726b6574706c61636560901b6020808301918252835180850190945260048452634e46544d60e01b9084015281519192916200006f91600091620000a0565b50805162000085906001906020840190620000a0565b5050600780546001600160a01b031916331790555062000183565b828054620000ae9062000146565b90600052602060002090601f016020900481019282620000d257600085556200011d565b82601f10620000ed57805160ff19168380011785556200011d565b828001600101855582156200011d579182015b828111156200011d57825182559160200191906001019062000100565b506200012b9291506200012f565b5090565b5b808211156200012b576000815560010162000130565b600181811c908216806200015b57607f821691505b602082108114156200017d57634e487b7160e01b600052602260045260246000fd5b50919050565b61214780620001936000396000f3fe6080604052600436106101405760003560e01c80638da5cb5b116100b6578063b88d4fde1161006f578063b88d4fde14610374578063c322579c14610394578063c87b56dd146103a7578063e0391b09146103c7578063e985e9c5146103dc578063ef2d17461461042557600080fd5b80638da5cb5b146102ca57806395d89b41146102ea57806398c3df16146102ff5780639b1225c41461032c5780639b2468481461033f578063a22cb4651461035457600080fd5b806342842e0e1161010857806342842e0e14610216578063629cb2e4146102365780636352211e1461025857806368f1945f1461027857806370a082311461029757806372b3b620146102b757600080fd5b806301ffc9a71461014557806306fdde031461017a578063081812fc1461019c578063095ea7b3146101d457806323b872dd146101f6575b600080fd5b34801561015157600080fd5b50610165610160366004611d4d565b61043a565b60405190151581526020015b60405180910390f35b34801561018657600080fd5b5061018f61048c565b6040516101719190611f19565b3480156101a857600080fd5b506101bc6101b7366004611ddb565b61051e565b6040516001600160a01b039091168152602001610171565b3480156101e057600080fd5b506101f46101ef366004611d24565b610545565b005b34801561020257600080fd5b506101f4610211366004611c36565b610660565b34801561022257600080fd5b506101f4610231366004611c36565b610691565b34801561024257600080fd5b5061024b6106ac565b6040516101719190611ecb565b34801561026457600080fd5b506101bc610273366004611ddb565b6108ef565b34801561028457600080fd5b50600a545b604051908152602001610171565b3480156102a357600080fd5b506102896102b2366004611bea565b61094f565b6102896102c5366004611d85565b6109d5565b3480156102d657600080fd5b506007546101bc906001600160a01b031681565b3480156102f657600080fd5b5061018f610ac4565b34801561030b57600080fd5b5061031f61031a366004611ddb565b610ad3565b6040516101719190612010565b6101f461033a366004611ddb565b610b3d565b34801561034b57600080fd5b5061031f610c9b565b34801561036057600080fd5b506101f461036f366004611cea565b610d12565b34801561038057600080fd5b506101f461038f366004611c71565b610d21565b6101f46103a2366004611ddb565b610d53565b3480156103b357600080fd5b5061018f6103c2366004611ddb565b610dc2565b3480156103d357600080fd5b5061024b610ed3565b3480156103e857600080fd5b506101656103f7366004611c04565b6001600160a01b03918216600090815260056020908152604080832093909416825291909152205460ff1690565b34801561043157600080fd5b50610289611018565b60006001600160e01b031982166380ac58cd60e01b148061046b57506001600160e01b03198216635b5e139f60e01b145b8061048657506301ffc9a760e01b6001600160e01b03198316145b92915050565b60606000805461049b90612079565b80601f01602080910402602001604051908101604052809291908181526020018280546104c790612079565b80156105145780601f106104e957610100808354040283529160200191610514565b820191906000526020600020905b8154815290600101906020018083116104f757829003601f168201915b5050505050905090565b600061052982611028565b506000908152600460205260409020546001600160a01b031690565b6000610550826108ef565b9050806001600160a01b0316836001600160a01b031614156105c35760405162461bcd60e51b815260206004820152602160248201527f4552433732313a20617070726f76616c20746f2063757272656e74206f776e656044820152603960f91b60648201526084015b60405180910390fd5b336001600160a01b03821614806105df57506105df81336103f7565b6106515760405162461bcd60e51b815260206004820152603d60248201527f4552433732313a20617070726f76652063616c6c6572206973206e6f7420746f60448201527f6b656e206f776e6572206f7220617070726f76656420666f7220616c6c00000060648201526084016105ba565b61065b838361108a565b505050565b61066a33826110f8565b6106865760405162461bcd60e51b81526004016105ba90611f2c565b61065b838383611176565b61065b83838360405180602001604052806000815250610d21565b606060006106b960085490565b905060008080805b848110156107515733600b60006106d984600161201e565b81526020810191909152604001600020600101546001600160a01b0316148061072c575033600b600061070d84600161201e565b81526020810191909152604001600020600201546001600160a01b0316145b1561073f5761073c60018561201e565b93505b80610749816120b4565b9150506106c1565b5060008367ffffffffffffffff81111561077b57634e487b7160e01b600052604160045260246000fd5b6040519080825280602002602001820160405280156107b457816020015b6107a1611a91565b8152602001906001900390816107995790505b50905060005b858110156108e55733600b60006107d284600161201e565b81526020810191909152604001600020600101546001600160a01b03161480610825575033600b600061080684600161201e565b81526020810191909152604001600020600201546001600160a01b0316145b156108d35761083581600161201e565b6000818152600b6020908152604091829020825160a0810184528154815260018201546001600160a01b039081169382019390935260028201549092169282019290925260038201546060820152600482015460ff1615156080820152845192955090918490879081106108b957634e487b7160e01b600052603260045260246000fd5b60209081029190910101526108cf60018661201e565b9450505b806108dd816120b4565b9150506107ba565b5095945050505050565b6000818152600260205260408120546001600160a01b0316806104865760405162461bcd60e51b8152602060048201526018602482015277115490cdcc8c4e881a5b9d985b1a59081d1bdad95b88125160421b60448201526064016105ba565b60006001600160a01b0382166109b95760405162461bcd60e51b815260206004820152602960248201527f4552433732313a2061646472657373207a65726f206973206e6f7420612076616044820152683634b21037bbb732b960b91b60648201526084016105ba565b506001600160a01b031660009081526003602052604090205490565b6000600a54341015610a295760405162461bcd60e51b815260206004820152601760248201527f53656e64206d6f726520657468657220746f206c69737400000000000000000060448201526064016105ba565b60008211610a845760405162461bcd60e51b815260206004820152602260248201527f4d616b652073757265207468652070726963652069736e2774206e6567617469604482015261766560f01b60648201526084016105ba565b610a92600880546001019055565b6000610a9d60085490565b9050610aa933826112e7565b610ab38185611301565b610abd818461139b565b9392505050565b60606001805461049b90612079565b610adb611a91565b506000908152600b6020908152604091829020825160a0810184528154815260018201546001600160a01b03908116938201939093526002820154909216928201929092526003820154606082015260049091015460ff161515608082015290565b6000818152600b6020526040902060030154348114610bc45760405162461bcd60e51b815260206004820152603e60248201527f506c6561736520656e746572207468652061736b696e6720707269636520666f60448201527f7220746865204e465420696e206f7264657220746f207075726368617365000060648201526084016105ba565b6000828152600b602052604090206002810180546004909201805460ff191660011790556001600160a01b03198216331790556001600160a01b0316610c0e600980546001019055565b610c19303385611176565b610c233084610545565b600754600a546040516001600160a01b039092169181156108fc0291906000818181858888f19350505050158015610c5f573d6000803e3d6000fd5b506040516001600160a01b038216903480156108fc02916000818181858888f19350505050158015610c95573d6000803e3d6000fd5b50505050565b610ca3611a91565b6000610cae60085490565b6000908152600b6020908152604091829020825160a0810184528154815260018201546001600160a01b03908116938201939093526002820154909216928201929092526003820154606082015260049091015460ff161515608082015292915050565b610d1d338383611438565b5050565b610d2b33836110f8565b610d475760405162461bcd60e51b81526004016105ba90611f2c565b610c9584848484611507565b6007546001600160a01b03163314610dbd5760405162461bcd60e51b815260206004820152602760248201527f4f6e6c79206f776e65722063616e2075706461746520746865206c697374696e6044820152666720707269636560c81b60648201526084016105ba565b600a55565b6060610dcd82611028565b60008281526006602052604081208054610de690612079565b80601f0160208091040260200160405190810160405280929190818152602001828054610e1290612079565b8015610e5f5780601f10610e3457610100808354040283529160200191610e5f565b820191906000526020600020905b815481529060010190602001808311610e4257829003601f168201915b505050505090506000610e7d60408051602081019091526000815290565b9050805160001415610e90575092915050565b815115610ec2578082604051602001610eaa929190611e5f565b60405160208183030381529060405292505050919050565b610ecb8461153a565b949350505050565b60606000610ee060085490565b905060008167ffffffffffffffff811115610f0b57634e487b7160e01b600052604160045260246000fd5b604051908082528060200260200182016040528015610f4457816020015b610f31611a91565b815260200190600190039081610f295790505b5090506000805b83811161100f576000610f5f82600161201e565b6000818152600b6020908152604091829020825160a0810184528154815260018201546001600160a01b039081169382019390935260028201549092169282019290925260038201546060820152600482015460ff161515608082015286519293509091869086908110610fe357634e487b7160e01b600052603260045260246000fd5b6020908102919091010152610ff8838561201e565b935050508080611007906120b4565b915050610f4b565b50909392505050565b600061102360085490565b905090565b6000818152600260205260409020546001600160a01b03166110875760405162461bcd60e51b8152602060048201526018602482015277115490cdcc8c4e881a5b9d985b1a59081d1bdad95b88125160421b60448201526064016105ba565b50565b600081815260046020526040902080546001600160a01b0319166001600160a01b03841690811790915581906110bf826108ef565b6001600160a01b03167f8c5be1e5ebec7d5bd14f71427d1e84f3dd0314c0f7b2291e5b200ac8c7c3b92560405160405180910390a45050565b600080611104836108ef565b9050806001600160a01b0316846001600160a01b0316148061114b57506001600160a01b0380821660009081526005602090815260408083209388168352929052205460ff165b80610ecb5750836001600160a01b03166111648461051e565b6001600160a01b031614949350505050565b826001600160a01b0316611189826108ef565b6001600160a01b0316146111af5760405162461bcd60e51b81526004016105ba90611fcb565b6001600160a01b0382166112115760405162461bcd60e51b8152602060048201526024808201527f4552433732313a207472616e7366657220746f20746865207a65726f206164646044820152637265737360e01b60648201526084016105ba565b61121e83838360016115ad565b826001600160a01b0316611231826108ef565b6001600160a01b0316146112575760405162461bcd60e51b81526004016105ba90611fcb565b600081815260046020908152604080832080546001600160a01b03199081169091556001600160a01b0387811680865260038552838620805460001901905590871680865283862080546001019055868652600290945282852080549092168417909155905184937fddf252ad1be2c89b69c2b068fc378daa952ba7f163c4a11628f55a4df523b3ef91a4505050565b610d1d828260405180602001604052806000815250611635565b6000828152600260205260409020546001600160a01b031661137c5760405162461bcd60e51b815260206004820152602e60248201527f45524337323155524953746f726167653a2055524920736574206f66206e6f6e60448201526d32bc34b9ba32b73a103a37b5b2b760911b60648201526084016105ba565b6000828152600660209081526040909120825161065b92840190611abf565b6040805160a081018252838152306020808301828152338486018181526060860188815260016080880181815260008c8152600b9097529890952096518755925193860180546001600160a01b039586166001600160a01b03199182161790915590516002870180549190951691161790925551600384015592516004909201805492151560ff1990931692909217909155610d1d919084611176565b816001600160a01b0316836001600160a01b0316141561149a5760405162461bcd60e51b815260206004820152601960248201527f4552433732313a20617070726f766520746f2063616c6c65720000000000000060448201526064016105ba565b6001600160a01b03838116600081815260056020908152604080832094871680845294825291829020805460ff191686151590811790915591519182527f17307eab39ab6107e8899845ad3d59bd9653f200f220920489ca2b5937696c31910160405180910390a3505050565b611512848484611176565b61151e84848484611668565b610c955760405162461bcd60e51b81526004016105ba90611f79565b606061154582611028565b600061155c60408051602081019091526000815290565b9050600081511161157c5760405180602001604052806000815250610abd565b8061158684611775565b604051602001611597929190611e5f565b6040516020818303038152906040529392505050565b6001811115610c95576001600160a01b038416156115f3576001600160a01b038416600090815260036020526040812080548392906115ed908490612036565b90915550505b6001600160a01b03831615610c95576001600160a01b0383166000908152600360205260408120805483929061162a90849061201e565b909155505050505050565b61163f8383611820565b61164c6000848484611668565b61065b5760405162461bcd60e51b81526004016105ba90611f79565b60006001600160a01b0384163b1561176a57604051630a85bd0160e11b81526001600160a01b0385169063150b7a02906116ac903390899088908890600401611e8e565b602060405180830381600087803b1580156116c657600080fd5b505af19250505080156116f6575060408051601f3d908101601f191682019092526116f391810190611d69565b60015b611750573d808015611724576040519150601f19603f3d011682016040523d82523d6000602084013e611729565b606091505b5080516117485760405162461bcd60e51b81526004016105ba90611f79565b805181602001fd5b6001600160e01b031916630a85bd0160e11b149050610ecb565b506001949350505050565b60606000611782836119b9565b600101905060008167ffffffffffffffff8111156117b057634e487b7160e01b600052604160045260246000fd5b6040519080825280601f01601f1916602001820160405280156117da576020820181803683370190505b5090508181016020015b600019016f181899199a1a9b1b9c1cb0b131b232b360811b600a86061a8153600a850494508461181357611818565b6117e4565b509392505050565b6001600160a01b0382166118765760405162461bcd60e51b815260206004820181905260248201527f4552433732313a206d696e7420746f20746865207a65726f206164647265737360448201526064016105ba565b6000818152600260205260409020546001600160a01b0316156118db5760405162461bcd60e51b815260206004820152601c60248201527f4552433732313a20746f6b656e20616c7265616479206d696e7465640000000060448201526064016105ba565b6118e96000838360016115ad565b6000818152600260205260409020546001600160a01b03161561194e5760405162461bcd60e51b815260206004820152601c60248201527f4552433732313a20746f6b656e20616c7265616479206d696e7465640000000060448201526064016105ba565b6001600160a01b038216600081815260036020908152604080832080546001019055848352600290915280822080546001600160a01b0319168417905551839291907fddf252ad1be2c89b69c2b068fc378daa952ba7f163c4a11628f55a4df523b3ef908290a45050565b60008072184f03e93ff9f4daa797ed6e38ed64bf6a1f0160401b83106119f85772184f03e93ff9f4daa797ed6e38ed64bf6a1f0160401b830492506040015b6d04ee2d6d415b85acef81000000008310611a24576d04ee2d6d415b85acef8100000000830492506020015b662386f26fc100008310611a4257662386f26fc10000830492506010015b6305f5e1008310611a5a576305f5e100830492506008015b6127108310611a6e57612710830492506004015b60648310611a80576064830492506002015b600a83106104865760010192915050565b6040805160a08101825260008082526020820181905291810182905260608101829052608081019190915290565b828054611acb90612079565b90600052602060002090601f016020900481019282611aed5760008555611b33565b82601f10611b0657805160ff1916838001178555611b33565b82800160010185558215611b33579182015b82811115611b33578251825591602001919060010190611b18565b50611b3f929150611b43565b5090565b5b80821115611b3f5760008155600101611b44565b600067ffffffffffffffff80841115611b7357611b736120e5565b604051601f8501601f19908116603f01168101908282118183101715611b9b57611b9b6120e5565b81604052809350858152868686011115611bb457600080fd5b858560208301376000602087830101525050509392505050565b80356001600160a01b0381168114611be557600080fd5b919050565b600060208284031215611bfb578081fd5b610abd82611bce565b60008060408385031215611c16578081fd5b611c1f83611bce565b9150611c2d60208401611bce565b90509250929050565b600080600060608486031215611c4a578081fd5b611c5384611bce565b9250611c6160208501611bce565b9150604084013590509250925092565b60008060008060808587031215611c86578081fd5b611c8f85611bce565b9350611c9d60208601611bce565b925060408501359150606085013567ffffffffffffffff811115611cbf578182fd5b8501601f81018713611ccf578182fd5b611cde87823560208401611b58565b91505092959194509250565b60008060408385031215611cfc578182fd5b611d0583611bce565b915060208301358015158114611d19578182fd5b809150509250929050565b60008060408385031215611d36578182fd5b611d3f83611bce565b946020939093013593505050565b600060208284031215611d5e578081fd5b8135610abd816120fb565b600060208284031215611d7a578081fd5b8151610abd816120fb565b60008060408385031215611d97578182fd5b823567ffffffffffffffff811115611dad578283fd5b8301601f81018513611dbd578283fd5b611dcc85823560208401611b58565b95602094909401359450505050565b600060208284031215611dec578081fd5b5035919050565b60008151808452611e0b81602086016020860161204d565b601f01601f19169290920160200192915050565b805182526020808201516001600160a01b039081169184019190915260408083015190911690830152606080820151908301526080908101511515910152565b60008351611e7181846020880161204d565b835190830190611e8581836020880161204d565b01949350505050565b6001600160a01b0385811682528416602082015260408101839052608060608201819052600090611ec190830184611df3565b9695505050505050565b6020808252825182820181905260009190848201906040850190845b81811015611f0d57611efa838551611e1f565b9284019260a09290920191600101611ee7565b50909695505050505050565b602081526000610abd6020830184611df3565b6020808252602d908201527f4552433732313a2063616c6c6572206973206e6f7420746f6b656e206f776e6560408201526c1c881bdc88185c1c1c9bdd9959609a1b606082015260800190565b60208082526032908201527f4552433732313a207472616e7366657220746f206e6f6e20455243373231526560408201527131b2b4bb32b91034b6b83632b6b2b73a32b960711b606082015260800190565b60208082526025908201527f4552433732313a207472616e736665722066726f6d20696e636f72726563742060408201526437bbb732b960d91b606082015260800190565b60a081016104868284611e1f565b60008219821115612031576120316120cf565b500190565b600082821015612048576120486120cf565b500390565b60005b83811015612068578181015183820152602001612050565b83811115610c955750506000910152565b600181811c9082168061208d57607f821691505b602082108114156120ae57634e487b7160e01b600052602260045260246000fd5b50919050565b60006000198214156120c8576120c86120cf565b5060010190565b634e487b7160e01b600052601160045260246000fd5b634e487b7160e01b600052604160045260246000fd5b6001600160e01b03198116811461108757600080fdfea264697066735822122005a10c18f665d9bb3bb9db9289187e333aac49ee5b9f4ef1a972ff1f7a3e901e64736f6c63430008040033",
  "linkReferences": {},
  "deployedLinkReferences": {}
}